:02000002D0002C
:1040000000400D001CAA0D00000006000D00050177
:084010000401E80500000000B6
:04401800C89D0D0032
:10401C0009480A49884208B505D0094A824202D0AB
:10402C00121A04F0C3FC0748074A0021121A04F0C4
:10403C00E3FC014808BD00BF54DC0320ECA80D00D4
:10404C0058DD032058DD0320F0E7032070B502F0A3
:10405C00D9FB074C074BE41AA40800251E46A542C1
:10406C0004D056F8253098470135F8E770BD00BFED
:10407C00DCA80D009CA80D0000F0A4BF08B500F052
:10408C00F3FFBDE8084002F07FBB01F033BC01F048
:10409C0039BC01F037BC0078B0FA80F040097047A9
:1040AC0001230370704710B50446043001F060FE24
:1040BC00204610BD10B504463C3001F059FE04F109
:1040CC00280001F055FE204601F052FE204610BD9E
:1040DC0008B501F0E7FB20B10020BDE8084001F075
:1040EC00F1BB08BD00221146406801F08BBB0000FB
:1040FC0038B584690A4B036005467CB16368013BA3
:10410C0063605BB9236820469B689847A368013BB2
:10411C00A3601BB923682046DB689847284638BD46
:10412C0028A30D0010B50446FFF7E2FF204610BD92
:10413C0010B50446FFF7DCFF20461C2103F05AFBA8
:10414C00204610BD014B1868704700BF8CDC032063
:10415C00014B1868704700BF80DC0320014B1868C6
:10416C00704700BF90DC0320014B1868704700BFFC
:10417C0088DC03202DE9F8432B4D2846FFF7B2FFCE
:10418C00044600284CD1034602460146686801F0FB
:10419C0041FB6868254D23462246214601F01AFB57
:1041AC0020462E6801F070F94FF000098046002778
:1041BC00002001F069F9B0EB080061EB0901B9428C
:1041CC0008BFB04206D21848FFF78CFF10B901F0B7
:1041DC0051FBEDE71448FFF785FF01F053FB00207E
:1041EC002C6801F051F9002706460025002001F04B
:1041FC004BF9801B61EB0701A94208BFA04205D215
:10420C0001F050FB10B901F035FBEFE701F04AFB70
:10421C000548FFF767FF04464FF47A7002F056F931
:10422C002046BDE8F88300BFB8E2032078DC032009
:10423C00F0B58FB00646FFF79DFF0546002860D00D
:10424C00314CFFF745FF02A801F034FB2F49204603
:10425C0001F005FE2E4B2F491B68A36304F12800C7
:10426C0001F0FDFD02A906A801F008FE2A4906A8E6
:10427C0001F0CBFE074602F018F90A2201460AA803
:10428C0001F04CFE0AA9384601F0B3FE234901F0B7
:10429C00BCFE314601F0ADFE014604F13C0001F0DC
:1042AC00DEFD0AA801F064FD06A801F061FD04F131
:1042BC003C010AA801F0E2FD0AA800F019FE0AA8C8
:1042CC0001F056FD164B174A00932146164B174822
:1042DC0000F0B8FC16490AA801F091FD0AA800F0FC
:1042EC0007FE0AA801F044FD1249134801F09FFE95
:1042FC00044602A814B101F03BFD02E001F038FDC8
:10430C00254628460FB0F0BD94DD032084DD032044
:10431C0084DC032060DD0320DC9D0D0037A00D0044
:10432C00DE9D0D0070DD032058DC0320E4DD03204E
:10433C00E29D0D00059E0D0074DD03201FB501F0FC
:10434C00A9FA01F0AFFA0446F0B901F0ABFA104942
:10435C00684601F054FD684600F0CAFD684601F05D
:10436C0007FD0C48234622462146406801F05AFAC4
:10437C000949684601F043FD684600F0B9FD6846FE
:10438C0001F0F6FC04B010BD01F074FAD9E700BFDF
:10439C00089E0D00B8E20320369E0D001FB5084B99
:1043AC001B78014643B1684601F068FD6846FFF78B
:1043BC003FFF684601F0DCFC05B05DF804FB00BF74
:1043CC005CDD032030B50C4689B04149054601F04F
:1043DC002EFE20B1204601F0F5FE3E4B08E03E4992
:1043EC00284601F024FE28B1204601F0EBFE3B4BA1
:1043FC00186069E03A49284601F019FE20B12046C0
:10440C0001F0E0FE374BF3E73749284601F00FFE89
:10441C0020B1204601F0D6FE344BE9E7344928465A
:10442C0001F005FE50B1204601F0CCFE07EE900ADB
:10443C00304BF8EEE77AC3ED007A45E02E4928467A
:10444C0001F0F5FD20B1204601F0BCFE2B4BCFE76F
:10445C002B49284601F0EBFD58B1204601F0B2FE85
:10446C0042F20F739842274BC2DC42F210721A6070
:10447C002AE02549284601F0DAFD50B123492046AF
:10448C0001F0D5FD224B10B101221A701CE01870FE
:10449C001AE0204904A801F0B2FC294604A801F056
:1044AC00A8FD1D4901F0B1FD214601F0A2FD014618
:1044BC00684601F0E3FC684600F01AFD684601F01E
:1044CC0057FC04A801F054FC012009B030BD00BF1A
:1044DC00639E0D008CDC0320669E0D0080DC0320A7
:1044EC00699E0D0090DC03206C9E0D007CDC03208B
:1044FC006F9E0D0054DC0320D0A60D0088DC032039
:10450C00729E0D0078DC0320759E0D00DAA00D0064
:10451C005CDD0320789E0D00F99E0D0070B59CB0FB
:10452C0004465D4914A801F06AFC214614A801F068
:10453C0060FD014618A801F0A1FC18A800F0D8FCF9
:10454C0018A801F015FC14A801F012FC534914A88A
:10455C0001F055FC524918A801F051FC18AA14A9F5
:10456C00204601F0A8FD0146204601F078FC18A871
:10457C0001F0FEFB14A801F0FBFB4949684601F071
:10458C003EFC474904A801F03AFC454908A801F053
:10459C0036FC00250126434908A801F048FDD8B98E
:1045AC002946204601F05EFD014618A801F092FC58
:1045BC0018A908A801F075FC18A801F0D9FB3A4914
:1045CC0008A801F034FD002840D1384908A801F0B2
:1045DC002EFD002830D039E0694614A801F04EFCBD
:1045EC0030490CA801F00BFC2D4910A801F007FC78
:1045FC0010AA0CA904A801F05EFD014618A801F050
:10460C003DFC18A914A8FFF7DDFE18A801F0B0FBBB
:10461C0010A801F0ADFB0CA801F0AAFB14A801F046
:10462C00A7FB08A801F0A4FB04A801F0A1FB6846B5
:10463C0001F09EFB1CB070BD16B108A9684601E0E4
:10464C0008A904A801F0C2FC0135A4E7164908A882
:10465C0001F0EDFC08B10026F6E7694614A801F05C
:10466C000DFC04A918A801F009FC18A914A8FFF75F
:10467C00A9FE064618A801F07BFB14A801F078FBF4
:10468C00002ECED00649684601F013FC044904A85C
:10469C0001F00FFC0126D7E78C9E0D009E9E0D00AD
:1046AC00719F0D00A09E0D00F99E0D0037A00D000E
:1046BC0010B5AEB00021684601F0F2FFFFF75AFDCD
:1046CC00002800F0C48001F0F0FE0A22014606A882
:1046DC0001F024FC06A90AA801F0D0FB5E490AA847
:1046EC0001F093FC5D4901F090FC5D4B0A221968C6
:1046FC0004460EA801F0FFFB0EA9204601F079FC40
:10470C00584901F082FC584B0A221968044612A839
:10471C0001F0F1FB12A9204601F06BFC534901F0AA
:10472C0074FC534B0A221968044616A801F0E3FBEB
:10473C0016A9204601F05DFC4E4901F066FC4E4B7B
:10474C000A22196804461AA801F0D5FB1AA92046BA
:10475C0001F04FFC494901F058FC494B0A221968F9
:10476C0004461EA801F0C7FB1EA9204601F041FC1F
:10477C00444901F04AFC444B044693ED000A0621DF
:10478C0022A801F0F2FB22A9204601F032FC3F499D
:10479C0001F03BFC3E4B0A221968044626A801F0A6
:1047AC00AAFB26A9204601F024FC3A4901F02DFC75
:1047BC000446684601F0B4FF06212AA801F0D5FB97
:1047CC002AA9204601F015FC014602A801F056FB6F
:1047DC002AA801F0CDFA26A801F0CAFA22A801F005
:1047EC00C7FA1EA801F0C4FA1AA801F0C1FA16A85B
:1047FC0001F0BEFA12A801F0BBFA0EA801F0B8FA4B
:10480C000AA801F0B5FA06A801F0B2FA02A92AA882
:10481C0001F034FB2AA800F06BFB2AA801F0A8FADF
:10482C0002A92AA801F02AFB2AA8FFF701FD2AA851
:10483C0001F09EFA18492AA801F0E1FA2AA800F022
:10484C0057FB2AA801F094FA02A801F091FA6846E5
:10485C0001F035FF2EB010BDA29E0D00A99E0D00DB
:10486C0080DC0320AE9E0D008CDC0320B39E0D007B
:10487C0090DC0320B89E0D0078DC0320BD9E0D005B
:10488C007CDC0320C29E0D0054DC0320C79E0D006F
:10489C0088DC0320CC9E0D00D29E0D0070B5BAB002
:1048AC000446002102A801F0FBFEFFF763FC002880
:1048BC0000F0E980FFF70CFC4FF4FA6001F006FE03
:1048CC00764930A802F006F904A8329D00F0F2FFF8
:1048DC0004A90CA801F0D2FA71490CA801F095FBBF
:1048EC00064601F0E2FD0A22014610A801F016FB73
:1048FC0010A9304601F07DFB6A4901F086FB6A493C
:10490C0001F083FB694B0A221968064614A801F0D2
:10491C00F2FA14A9304601F06CFB654901F075FB05
:10492C00644B0A221968064618A801F0E4FA18A983
:10493C00304601F05EFB604901F067FB5F4B0A22D9
:10494C00196806461CA801F0D6FA1CA9304601F0DD
:10495C0050FB5B4901F059FB5A4B0A221968064679
:10496C0020A801F0C8FA20A9304601F042FB5649B4
:10497C0001F04BFB554B0A221968064624A801F09E
:10498C00BAFA24A9304601F034FB514901F03DFB41
:10499C00214601F02EFB4F4901F037FB0A22044659
:1049AC00294628A801F0A7FA28A9204601F021FBE6
:1049BC00494901F02AFB044602A801F0B1FE062188
:1049CC002CA801F0D2FA2CA9204601F012FB0146CA
:1049DC0008A801F053FA2CA801F0CAF928A801F094
:1049EC00C7F924A801F0C4F920A801F0C1F91CA84A
:1049FC0001F0BEF918A801F0BBF914A801F0B8F940
:104A0C00364C10A801F0B4F90CA801F0B1F93449F6
:104A1C00204601F024FA334B33491B68A36304F19D
:104A2C00280001F01CFA08A904F13C0001F017FA67
:104A3C0008A92CA801F022FA2CA800F059FA2CA8ED
:104A4C0001F096F9294B2A4A00932146294B2A4812
:104A5C0000F0F8F8294928A801F010FA28A92CA888
:104A6C0001F00CFA2CA8FFF759FD2CA801F080F9E5
:104A7C00FFF71EFE28A801F07BF908A801F078F9D1
:104A8C0004A801F075F901F010FD044602A801F02C
:104A9C0016FE04F13C003AB070BD00BFB8E2032032
:104AAC00DC9D0D00E69E0D00A99E0D0080DC032010
:104ABC00AE9E0D008CDC0320B39E0D0090DC032019
:104ACC00B89E0D0078DC0320BD9E0D007CDC03201D
:104ADC00EE9E0D00F49E0D00CC9E0D0094DD032087
:104AEC0084DD032084DC032060DD0320DE9D0D00CB
:104AFC0070DD032058DC0320E4DD032074DD03208B
:104B0C0008B5FFF737FBBDE80840FFF7E1BA000036
:104B1C0070B5234D234C244E00F05EFC284600F06B
:104B2C0059F82846214D2249224602F055FE3146BD
:104B3C00284601F064F905F1100001F0C9FE314678
:104B4C0005F1280001F05BF9314605F13C0001F05C
:104B5C0056F92846174D1849224602F03DFE3146BB
:104B6C00281D01F04CF92846144D1549154E2246C6
:104B7C0002F032FE1449284601F041F92846134D43
:104B8C002246314602F028FE1149284601F037F939
:104B9C00224631462846BDE8704002F01DBE00BFDB
:104BAC00E4DD032058DD0320719F0D0094DD03200C
:104BBC0031410D0070DD0320C1400D0084DD032068
:104BCC00B3400D007D5D0D00FB9E0D0060DD0320EC
:104BDC000A9F0D0010B5044602F044FC204610BD9F
:104BEC0038B50446154601F035FB0549204601F061
:104BFC0031FB29462046BDE8384001F03EBB00BFE2
:104C0C004EA10D0038B50546144601F023FB0B49A7
:104C1C00284601F01FFB002C05DA2D21284601F057
:104C2C001DFB614200E0214628460A2201F02FFBC1
:104C3C002846BDE8384001F014BB00BF4EA10D0062
:104C4C0000F0CABB2DE9F04F0D461E464FF0FF3366
:104C5C0089B00446136000212846924601F0E7F91A
:104C6C00D5F838C060B92968BCF1000F02D01FFA22
:104C7C008CF200E050220023204602F043FA11E0AF
:104C8C006F4B029305F1140EBEE80F0003AF0FC774
:104C9C00DEF800303B701FFA8CF2002302A920468C
:104CAC0002F0B2FA003018BF012018B9204602F009
:104CBC0025FBC1E01299204601F0CCFA614920464F
:104CCC0001F0C8FAA96A204601F0C4FA5E492046F0
:104CDC0001F0C0FA5D495E4A2046FFF781FF0021D2
:104CEC00284601F0A4F920B92A685A492046FFF752
:104CFC0077FF05F13C070021384601F098F908B917
:104D0C006A6C05E05449129803F0A6FE024618B9E5
:104D1C0052492046FFF776FF5EB1316849B172689F
:104D2C00204612B1FFF75CFF01E001F0A6FA08364D
:104D3C00F3E7204601F095FA204602F00BF900212A
:104D4C00384601F074F918B9E96B204601F095FA70
:104D5C0004F11C0B4FF480620021584603F04CFE0A
:104D6C0000F07AFBB5F84C80009041F288330026B5
:104D7C00B8F1000F08BF98464FF0010935462046A0
:104D8C0002F0D4FAC0B3204602F079F9C7B200F0B1
:104D9C0063FB0090B9F1000F18D00A2F11D10A2E25
:104DAC0013D104F1250003F0DFFC4FF00009CAF821
:104DBC0000004FF480620021584603F01DFE4D4662
:104DCC00DDE70D2F18BF3E4600E03E4640F2FE33B5
:104DDC009D4202D863191F770CE040F2FF339D42CD
:104DEC0008D14FF0000384F81B34204602F086FAF9
:104DFC00012702E00135C2E7074600F02DFB009BBE
:104E0C00C31A019327B9434502D8C82001F05EFBB1
:104E1C00204602F0A0F820B1019B434501D8002F99
:104E2C00ADD0204602F06AFAB9F1000F04D1594610
:104E3C000AF1040001F03DF809B0BDE8F08F00BFA5
:104E4C0008A20D004AA10D00669F0D00789F0D0071
:104E5C00729F0D00839F0D00979F0D00889F0D0082
:104E6C0010B50446006808B100F04CFD204610BD9A
:104E7C0073B51E4B1D7806460C46B5B902A8012227
:104E8C001A7040F8045D2A46294600F00DFB019B80
:104E9C001E2B0AD103232068A3710823A58025812A
:104EAC00638110B100F02EFD2560B4F904300BB90C
:104EBC0022689AB1216859B18A88012A03D0042A40
:104ECC0006D1022205E089896181A271238105E066
:104EDC00042223814FF6FF73A271638154F8063FBD
:104EEC003360A388B380304602B070BD00E203206B
:104EFC0070B5304C90B00546214608A800F07FFFF5
:104F0C002D490CA800F07BFF0CAA08A9284601F03B
:104F1C00D2F80CA800F02CFF08A800F029FF08A874
:104F2C0000F0C8FC08A90CA800F0A8FF21460CA8AA
:104F3C0001F06BF80146684600F0A0FF0CA800F0E9
:104F4C0017FF08A800F014FF01F0AFFA1B4B1C4927
:104F5C00024604A801F056FA01F066FD04A90646C3
:104F6C000CA800F08BFF00F077FA0A22014608A883
:104F7C0000F0E7FF08A90CA801F03BF8214601F06E
:104F8C0044F8694601F035F8294601F032F8016819
:104F9C00304601F072F908A800F0EAFE0CA800F007
:104FAC00E7FE04A800F0E4FE684600F0E1FE10B055
:104FBC0070BD00BF37A00D00EB9F0D009C9F0D0036
:104FCC0084E2032030B5214D214C85B00021042012
:104FDC0002F058FB2888012102F054FB20880121A3
:104FEC0002F050FB2888002102F05DFB0021208894
:104FFC0002F059FBFFF784FD01F057FA154B1860CE
:10500C004FF47A7001F062FA1349684600F0F7FE2B
:10501C006846FFF76DFF684600F0AAFE0F49684628
:10502C0000F0EDFE6846FFF703F9684600F0A0FEBD
:10503C000B49684600F022FF6846FFF72FFC094B2E
:10504C001860684600F094FE05B030BD44E20320C1
:10505C0094DC03202CE20320AF9F0D00ED9F0D008C
:10506C0034E2032004E203202DE9F04391B08E4991
:10507C008E4C8F4D06A8FFF7FBFE01F016FA206050
:10508C004FF47A7001F022FA8A490CA800F0B7FEAE
:10509C000CA8FFF72DFF0CA800F06AFE01F005FA32
:1050AC00206006A800F050FD264618B92B78002B7E
:1050BC0000F0DC800024804F2C70FFF74FF83D6827
:1050CC003C2303FB005501F0F0F985420BDA7B49D8
:1050DC000CA800F0D3FE0CA8FFF7E0FB38600CA87E
:1050EC0000F046FE0124764F33683D685D1BFFF7E8
:1050FC002FF83C267043854270DBDFF8F88171494C
:10510C00714D0CA800F07BFE0A22D8F8001008A8FC
:10511C0000F0F1FE08A90CA800F06BFF01466B48EB
:10512C0000F054FF08A800F023FE0CA800F020FEAD
:10513C002B6801332B605D4B1B683B60644FFFF7A2
:10514C0001F83B6858432B68984244DC002C42D150
:10515C00FFF710F8002800F0A38001F0A6F98146B3
:10516C00FEF7F6FF2B687043591E0A2200FB1191C3
:10517C000CA800F0D3FE0CA9564800F08AFE0CA82F
:10518C0000F0F6FD5449534800F024FFFEF7E0FF11
:10519C000A2201460CA800F0AEFE0CA94D4800F006
:1051AC0015FF0CA800F0E4FD48494A4800F00EFF3A
:1051BC0048490CA800F062FE0CA8FFF739F8064627
:1051CC000CA800F0D5FD36B14449404800F071FE02
:1051DC002C6001233B600023C8F8003000F03CF940
:1051EC000446FEF7C1FF3E4B5843844203DDFFF7F4
:1051FC00A5F800F056FC3B490CA800F000FE0CA8EA
:10520C00FFF7CCF80CA800F0B3FD37490CA800F060
:10521C00F6FD0CA8FFF76CFE0CA800F0A9FDFFF73B
:10522C008DF832490CA800F0EAFD0CA8FFF760FEDF
:10523C000CA800F09DFD4FF47A7001F047F9FEF7D1
:10524C0087FF2B4B19680423ADF8203010AB0122DB
:10525C0003F8292D02913C2148430190009208A9A2
:10526C000CA800F039FC11B0BDE8F083214C2249A8
:10527C0023680CA80133236000F0C1FD0CA8FFF7D4
:10528C0037FE0CA800F074FD0A2221680CA800F06F
:10529C0032FE0CA8FFF72CFE0CA800F069FD09E704
:1052AC003B68013396E700BF64E2032048E2032029
:1052BC0098DC0320F69F0D0004E2032034E2032067
:1052CC002CE2032037A00D0024E203204CE2032043
:1052DC009CDC032014E2032032A00D00719F0D0012
:1052EC00005C260539A00D0045A00D0063A00D0043
:1052FC0030E2032028E2032080A00D002DE9F041CC
:10530C00234B244F244E254DDFF8A88000241C602D
:10531C0000F062F82249384600F071FD3846214F02
:10532C003246294602F058FA4146384600F067FDED
:10533C0038461D4F3246294602F04EFA4146384651
:10534C0000F05DFD32462946384602F045FA02F07F
:10535C004BF92346224642F67A11144D02F04CF9D1
:10536C0002F042F922462346012102F04DF94FF694
:10537C00FF732C60AC80AC712C816B81032000F02E
:10538C00F3F9324628460A49BDE8F04102F024BA46
:10539C0030E2032034E2032058DD03207D5D0D0054
:1053AC008CA00D004CE2032014E2032008E2032041
:1053BC006D4E0D00719F0D0008B5024B1B689B686C
:1053CC00019308BD6802030008B5024B1B68DB683B
:1053DC00019308BD6802030008B5024B1B681B68EB
:1053EC00019308BD2C02030008B5024B1B689B6897
:1053FC00019308BD2C02030008B5024B1B68DB6847
:10540C00019308BD2C02030008B5024B1B681B69F5
:10541C00019308BD2C02030008B5024B1B68DB6925
:10542C00019308BD3002030008B5024B1B681B6AD0
:10543C00019308BD3002030008B5024B1B685B6981
:10544C00019308BD6C02030008B5024B1B685B6836
:10545C00019308BD1802030008B5024B1B685B6979
:10546C00019308BD1802030008B5024B1B68DB69E9
:10547C00019308BD1802030008B5024B1B689B6D15
:10548C00019308BD1802030008B5024B1B68DB6DC5
:10549C00019308BD1802030008B5024B1B689B6EF4
:1054AC00019308BD3402030008B5024B1B68DB6E88
:1054BC00019308BD3402030008B5024B1B689B68BE
:1054CC00019308BD4802030008B5024B1B681B6919
:1054DC00019308BD4802030008B5024B1B685B69C9
:1054EC00019308BD4802030008B5024B1B685B6CB6
:1054FC00019308BD4802030008B5024B1B689B6C66
:10550C00019308BD4802030008B5024B1B685B6998
:10551C00019308BD6402030008B5024B1B681B6AAB
:10552C00019308BD6402030008B5024B1B689B6A1B
:10553C00019308BD6402030008B5024B1B681B688D
:10554C00019308BD3C02030008B5024B1B68DB68E5
:10555C00019308BD3C02030008B5024B1B681B6994
:10556C00019308BD3C02030008B5024B1B685B6944
:10557C00019308BD3C02030008B5024B1B689B69F4
:10558C00019308BD3C02030008B5024B1B68DB69A4
:10559C00019308BD3C02030008B5024B1B681B6A53
:1055AC00019308BD3C02030008B5024B1B689B6AC3
:1055BC00019308BD3C02030008B5024B1B689B69B4
:1055CC00019308BD2802030008B5024B1B68DB6978
:1055DC00019308BD2802030008B5024B1B681B6A27
:1055EC00019308BD2802030008B5024B1B685B6AD7
:1055FC00019308BD2802030008B5024B1B689B6A87
:10560C00019308BD2802030008B5024B1B68DB6A36
:10561C00019308BD2802030008B5024B1B681B6BE5
:10562C00019308BD2802030008B5024B1B685B6B95
:10563C00019308BD2802030008B5024B1B681B6CC4
:10564C00019308BD2802030008B5024B1B689B6C34
:10565C00019308BD2802030008B5024B1B68DB6CE4
:10566C00019308BD2802030008B5024B1B681B6D93
:10567C00019308BD2802030008B5024B1B689B6907
:10568C00019308BD3802030008B5024B1B68DB69A7
:10569C00019308BD3802030008B5024B1B681B6A56
:1056AC00019308BD3802030008B5024B1B689B6AC6
:1056BC00019308BD3802030008B5024B1B681B6B35
:1056CC00019308BD3802030008B5024B1B689B6BA5
:1056DC00019308BD3802030008B5024B1B685B6CD4
:1056EC00019308BD7402030008B5024B1B681B68CC
:1056FC00019308BD4C02030008B5024B1B681B69E3
:10570C00019308BD4C02030008B5024B1B685B6992
:10571C00019308BD4C02030008B5024B1B689B6942
:10572C00019308BD4C02030008B5024B1B68DB69F2
:10573C00019308BD4C02030008B5024B1B681B6AA1
:10574C00019308BD4C02030008B5024B1B681B6D8E
:10575C00019308BD6002030008B5024B1B681B686F
:10576C00019308BD2002030008B5024B1B685B685F
:10577C00019308BD2002030008B5024B1B685B694E
:10578C00019308BD2002030008B5024B1B689B6DFA
:10579C00019308BD2002030008B5034B1B68D3F826
:1057AC008830019308BD00002002030008B5034BAC
:1057BC001B68D3F89430019308BD0000200203004D
:1057CC0008B5034B1B68D3F8A030019308BD00004B
:1057DC002002030008B5024B1B685B68019308BDEF
:1057EC004002030008B5024B1B689B68019308BD7F
:1057FC004002030008B5024B1B68DB68019308BD2F
:10580C004002030008B5024B1B681B69019308BDDD
:10581C004002030008B5024B1B685B69019308BD8D
:10582C004002030008B5024B1B689B69019308BD3D
:10583C004002030008B5024B1B68DB69019308BDED
:10584C004002030008B5024B1B681B6A019308BD9C
:10585C004002030008B5024B1B681B6B019308BD8B
:10586C004002030008B5024B1B685B6B019308BD3B
:10587C004002030008B5024B1B689B68019308BDEE
:10588C004402030008B5024B1B68DB68019308BD9A
:10589C004402030008B5024B1B681B69019308BD49
:1058AC004402030008B5024B1B685B69019308BDF9
:1058BC004402030008B5024B1B68DB69019308BD69
:1058CC004402030008B5024B1B68DB6A019308BD58
:1058DC004402030008B5024B1B681B6B019308BD07
:1058EC004402030008B5024B1B68DB6B019308BD37
:1058FC004402030008B5024B1B681B68019308BDEA
:10590C001C02030008B5024B1B685B68019308BDC1
:10591C001C02030008B5024B1B689B68019308BD71
:10592C001C02030008B5024B1B681B69019308BDE0
:10593C001C02030008B5024B1B689B69019308BD50
:10594C001C02030008B5024B1B68DB69019308BD00
:10595C001C02030008B5024B1B681B6A019308BDAF
:10596C001C02030008B5024B1B681B6B019308BD9E
:10597C001C02030008B5024B1B68DB6B019308BDCE
:10598C001C020300002211464068FFF75BBF002297
:10599C0011464068FFF766BF00224068FFF75ABF08
:1059AC00002281F001014068FFF744BF00231A4632
:1059BC0019464068FFF736BF00231A46194640685F
:1059CC00FFF728BF002211464068FFF71BBF0022DB
:1059DC0011464068FFF706BF002202214068FFF71E
:1059EC0009BF00231A464068FFF7F4BE024B03229E
:1059FC005A60024A1A6070475CE203209CA00D00BA
:105A0C0010B5044601700846FFF706FD00236360DD
:105A1C00204610BD0078FFF707BD10B5044600689E
:105A2C0018B1FFF76FFF0023236010BD38B5B1F933
:105A3C00043083800B460D4653F8062FC0F8062021
:105A4C009B8843810446FFF7E8FF2B6813B1236062
:105A5C0000232B60204638BDB1F9043010B50BB9CA
:105A6C000A689AB10C685CB1A288012A03D0042A96
:105A7C0006D1022205E0A4894C818A710B8105E0D4
:105A8C0004220B814FF6FF738A714B8151F8063F4C
:105A9C0003608B88838010BD014600228C20FFF7A9
:105AAC00FBBC0020FFF7F8BF10B500240470448045
:105ABC0000294FF6FF74848007DD0139994209D221
:105ACC0032F811308380012301E002D102230370EC
:105ADC0010BD418010BD0000F0B58BB017461A46C2
:105AEC00129B01930E460024119B029405460093D1
:105AFC003946109B3046FFF763FE3B463246014663
:105B0C0005A8FFF7D1FF0794ADF820400D4C9DF888
:105B1C001410BDF91620BDF818308DF8221020464F
:105B2C0007A9ADF82420ADF82630FFF77FFF07A8B2
:105B3C00FFF773FF28462146FFF78EFF28460BB070
:105B4C00F0BD00BF64E203200078023801288CBF4E
:105B5C00002001207047000010B5094C00204FF6C2
:105B6C00FF732060A080A07120816381FFF7FCFD92
:105B7C002046044A0449BDE8104001F02DBE00BF88
:105B8C0064E2032058DD03206D4E0D0010B5044671
:105B9C0003F088FC013823182046984206D202787C
:105BAC00197800F8011B03F80129F6E710BD2DE95F
:105BBC00F041931E232B15468CB034BF15460A2595
:105BCC0000230A2D0C468DF82C3007D1984205DAAB
:105BDC002D2301F101080B70404201E0B0B1A04649
:105BEC000DF12B0601272A46014601A802F0CAFE38
:105BFC00029B0198092BCCBF3722302252FA83F337
:105C0C0006F8013901370028EDD106E030238DF874
:105C1C002B30A0460DF12A0602273A46711C40464D
:105C2C0002F0C4FE20460CB0BDE8F08170B50C4605
:105C3C00911E222920D82546294610B9234430220A
:105C4C000EE0B0FBF2F602FB1600C1B205F8011B28
:105C5C00092894BF3031573105F8011C3046EBE769
:105C6C00994202D201F8012BFAE7002320460B706F
:105C7C00FFF78CFF204670BD002070BD38B5031EA9
:105C8C000C4615460BDAB3F1004F4FF02D0214BF42
:105C9C005842184601230A702A46194400E0012391
:105CAC00FFF7C4FF204638BD2DE9F14F59EC108B9E
:105CBC0007460E460022002310EE100A494602F059
:105CCC001FFB28B109F1004399462D23337001368F
:105CDC00002301240A22D9B28F4202D95443013342
:105CEC00F9E7204602F034F842464B4602F096F8AB
:105CFC0082468B4602F064FB8046894602F058F8D7
:105D0C0002460B465046594601F0D4FE0022174B72
:105D1C0002F00AFB18B118F1010849F10009E51766
:105D2C0022462B464046494602F032FB01230A220A
:105D3C003146FFF77BFFAFB1304603F0B3FB2E23A8
:105D4C0033540130064422462B464046494602F065
:105D5C001FFB3B46104631460A2201B0BDE8F04F0E
:105D6C00FFF764BF01B0BDE8F08F00BF0000E03F5B
:105D7C0010B504460068FFF7C5FD204610BD10B5F0
:105D8C000446006808B1FFF7BDFD00232360A36043
:105D9C00636010BD38B504460D4600680131FFF74D
:105DAC00B9FD10B184E82100012038BD10B503689D
:105DBC00044613B143688B4207D22046FFF7EAFF33
:105DCC0020B1A3680BB922681370012010BD70B507
:105DDC000E46114604461546FFF7E8FF18B9204653
:105DEC00FFF7CDFF09E02A463146A560206802F096
:105DFC00DDFD2268A3680021D154204670BD38B562
:105E0C000023044603604360836003730D4639B17D
:105E1C00084603F047FB294602462046FFF7D7FF0A
:105E2C00204638BD38B5054600680C4660B16A6836
:105E3C008B689A4206D3096802F018FEA368AB601F
:105E4C0000230AE0FFF75EFD23682B6063686B603C
:105E5C00A368AB60002323606360A36038BD8842F5
:105E6C0010B50B46044607D0096819B19A68FFF7BC
:105E7C00AEFF01E0FFF783FF204610BD10B50023F5
:105E8C0004460360436083600373FFF7E8FF20461A
:105E9C0010BD884210B5044601D0FFF7C3FF204661
:105EAC0010BD884210B5044601D0FFF7BBFF204659
:105EBC0010BD38B505460C4641B1084603F0F2FA60
:105ECC00214602462846FFF782FF01E0FFF757FF05
:105EDC00284638BD13B500238DF8041003604360C9
:105EEC008360037301A904468DF80530FFF7E1FFC9
:105EFC00204602B010BD10B5044600238AB02360C2
:105F0C006360A3602373084601A9FFF7B7FE01A9DC
:105F1C002046FFF7CEFF20460AB010BD10B5044650
:105F2C0000238AB023606360A3602373084601A931
:105F3C00FFF73DFE01A92046FFF7BBFF20460AB044
:105F4C0010BD10B504468AB0002323606360A360C3
:105F5C0023730846012301A9FFF768FE01A9204617
:105F6C00FFF7A7FF20460AB010BD30B500238BB059
:105F7C000360436083600373044610EE100ACDB2D5
:105F8C0001F0F8FE41EC100B01A92846FFF78CFE3E
:105F9C0001A92046FFF78DFF20460BB030BD70B530
:105FAC0004460E4609B9002070BD6AB18368D51845
:105FBC002946FFF7FBFE0028F5D02068A368314680
:105FCC00184402F053FDA560012070BD8A68096871
:105FDC00FFF7E5BF38B505460C46084641B103F05E
:105FEC0061FA214602462846BDE83840FFF7D7BF84
:105FFC0038BD10B58A6809680446FFF7D0FF10B9A0
:10600C002046FFF7BCFE204610BD38B504460D46B1
:10601C0041B1084603F046FA294602462046FFF7EE
:10602C00BEFF10B92046FFF7AAFE204638BD08B5C2
:10603C0082680B4612B919B9012008BD11B9036861
:10604C00187802E0006802F007FDB0FA80F0400911
:10605C0008BD83688B4203D9006810B1405C70475F
:10606C0000207047FFF7F5BF2DE9F04115468A680F
:10607C000F46CAB18368BBB19A4215D80668AB42C9
:10608C0098BF03F1FF3530464FF0FF3406EB05089F
:10609C0040450DD8396803F035FA48B1831B9D4251
:1060AC0028BF1C460130F3E74FF0FF30BDE8F0810C
:1060BC002046BDE8F0812DE9F74FD0F808A0054641
:1060CC0088461646BAF1000F78D0D1F808B0BBF16B
:1060DC00000F73D097680468CBEB0707002F0ED125
:1060EC002046D8F8001003F00DFA0446002865D0BD
:1060FC00B268316802F05AFCB0680444F0E722DA66
:10610C00A146D8F80010204603F0FCF98346A8B14C
:10611C00C4EB000A214652464846D14402F046FCE4
:10612C004846B268316802F041FCB368D8F80840C0
:10613C009944AB683B445C44AB60E2E7214648467B
:10614C0002F094FC3AE00B68D146194620460193C4
:10615C0003F0D8F920B100EB0B04B944019BF4E730
:10616C00D1452BD06B68994504D949462846FFF791
:10617C0011FE18B3AA684FF00009013A002A1DDB82
:10618C0041462846FFF770FF041E17DBD8F808308D
:10619C002968AA6823441944D21AC81902F011FCC0
:1061AC00AB682A683B44AB6002F803902868B2687D
:1061BC003168204402F0FAFB621EDFE7284603B088
:1061CC00BDE8F08F006808B102F0D2BA704710B584
:1061DC000446006808B1FFF78FF9204610BD000097
:1061EC0010B5064C002320462360FFF77DF92046AE
:1061FC00034A0449BDE8104001F0EEBA70E20320F6
:10620C0058DD0320DB610D00F8B506460D468F18EE
:10621C000024BD420CD0336815F8011B9B68304636
:10622C009847002801DB0444F3E7002C08BF044620
:10623C002046F8BD70B505460C46084649B103F03A
:10624C0031F92B68024621462846DB68BDE87040D0
:10625C00184770BD08B5FFF7EDFF08BD03689B68D4
:10626C00184738B50D210546FFF7F8FF0A210446FB
:10627C002846FFF7F3FF204438BD38B50546FFF735
:10628C00D9FF04462846FFF7ECFF204438BD30B553
:10629C008BB00B4600218DF82410012A98BF0A22DE
:1062AC000DF12304B3FBF2F505FB123303F0FF03EE
:1062BC00092B94BF30333733DBB2214604F8013954
:1062CC002B46002DEED1FFF7B5FF0BB030BD000013
:1062DC00014B024A1A60704774E203203BA10D0087
:1062EC0008B50020FFF7F6FA28B1FFF7DBFA80F0CB
:1062FC000100C0B208BD012008BD000037B50E4B2F
:10630C001B6819440D4B1B68044602A8194440F83D
:10631C00041D02F03FFA02F0EBF9054603F0C2F857
:10632C002844002300F8013C29462046FFF767FD6E
:10633C00204603B030BD00BF80E203207CE2032086
:10634C002DE9F047A4B014AC074689462046114607
:10635C003F221D4603F0C3F8002320468DF88F30F2
:10636C0003F0A0F8804625B9244903A802F07EFB6F
:10637C0013E03C2195FBF1F2002AB8BF524292FB8C
:10638C00F1F301FB132200924FF461631C4A95FB5D
:10639C00F3F3102103A8FFF7D5FA25462E1B08F1BD
:1063AC00FF3AB2451BD92B78252B16D16B787A2B5B
:1063BC0013D103A803F076F880463044C6EB0A02EA
:1063CC00A91C204402F0F2FA424603A9284602F026
:1063DC00EDFA204603F066F880460135DEE74B46C1
:1063EC002246322107A802F0A9FB07A93846FFF77D
:1063FC0006FD384624B0BDE8F08700BF61A80D004B
:10640C00A3A10D00F7B5054601921C4613B9124B1A
:10641C001C682CB1114B2046196802F01DFB20B9E9
:10642C0001992846FFF76AFF13E00D4F019A3B686C
:10643C000C4E1A44336802A8134440F8043D02F091
:10644C00A9F93A6833680146134428462246FFF7F7
:10645C0077FF284603B0F0BD78E20320A0DC0320D0
:10646C0080E203207CE2032010B50020FFF704F843
:10647C00044668B9FFF770F901280BD12046FFF7E5
:10648C0083F938B9FFF72CFF30B9FFF7F3F9F9E7C7
:10649C00012010BD002010BDFFF722FF0020FEF7E9
:1064AC00EBFF003018BF012010BD08B5FFF7DCFF73
:1064BC00BDE80840FEF7D8BF024B1A68024B1A60C1
:1064CC00704700BFA0DC032078E203200021FFF717
:1064DC0053B910B58368044613B10322014698479B
:1064EC00204610BD10B50446FFF7F3FF204610BD43
:1064FC000348044A04490023836001F06DB900BFCE
:10650C0088E2032058DD0320F1640D007047007D04
:10651C0070470000037D1BB18369B3F1004F02D1BA
:10652C009FED050A704707EE903A9FED047AF8EE5E
:10653C00E77A87EE870A7047000000000000C84227
:10654C00037D1BB1036AB3F1004F02D19FED050A25
:10655C00704707EE903A9FED047AF8EEE77A87EEF3
:10656C00870A7047000000000000C84210B52821BF
:10657C00044601F03FF9204610BD0000037D7BB1BD
:10658C00436A002B0CDB07EE903ADFED076A9FEDB8
:10659C00070AB8EEE77AC7EE267A27EE800A70472C
:1065AC00BFEE000A704700BF00FF7F470000C842E3
:1065BC00037D7BB1C369002B0CDB07EE903ADFED5A
:1065CC00076A9FED070AB8EEE77AC7EE267A27EE40
:1065DC00800A7047BFEE000A704700BF00FF7F477C
:1065EC000000C84230B50D4600F110040FCD0FC4A9
:1065FC0095E8030084E80300012030BD2DE9F0414B
:10660C0007460C4615462AB90368C9B29B68BDE813
:10661C00F0411847002907DA0A2A05D12D21FFF786
:10662C001DFE6142064601E021460026EAB23846CC
:10663C00FFF72DFE3044BDE8F08170B50D460646DF
:10664C000A2281682846FFF7D9FF2C2104462846E8
:10665C00FFF704FE0A220444F1682846FFF7CEFF38
:10666C00204470BDA0F10400FFF7E7BF090941EA1F
:10667C00001007EE900AB8EEE70ADFED027A80EE22
:10668C00270A704700004844006800F072BB10B540
:10669C000446016002710AB1FFF7F6FF204610BDF7
:1066AC0038B504460D4601F071F82A4601462046DD
:1066BC00FFF7EDFF204638BD006800F063BB10B556
:1066CC00037904460BB1FFF7F7FF204610BDF8B570
:1066DC00044616461D460F46FFF7D6FF20683621A6
:1066EC0000F03CFB2068036839469B689847012101
:1066FC00206800F036FB022236210123206800F0CE
:10670C0017FB206803685B69984730702068036842
:10671C005B69984728702046BDE8F840FFF7CCBF6E
:10672C0007B502AB00228DF8062003F8012D0221DB
:10673C000DF10602FFF7CBFF9DF807109DF8060040
:10674C0003B05DF804EBFFF791BF000008B50C4BEC
:10675C0033B100F069F903681B699847002809DC1C
:10676C00084B63B100F064FA03681B699847002872
:10677C0003DC08BDAFF30080F2E7AFF3008008BD87
:10678C00000000000000000008B5FFF7DFFFFEF777
:10679C0063FE014B186008BDF0E503200248034A74
:1067AC000349121A02F002B900F4032004F4032086
:1067BC00E8A80D0007B5002300931A466FF0770187
:1067CC00FEF7F4FF03B05DF804FB000007B5438847
:1067DC000A2B08D0502B09D1094B1B683BB103B0D5
:1067EC005DF804EB1847FFF7E5FF06E00023009384
:1067FC001A466FF07701FEF7D9FF03B05DF804FB82
:10680C0098E2032038B5104C104D2368AB42104B66
:10681C000CBF012200221A7002D0FFF7BFFF2560C7
:10682C00FEF712FE044602F0EFF80A4B13B12046B5
:10683C00AFF3008000210748FFF754F80021064809
:10684C00BDE83840FEF7A8BF00F403201E1C279AB1
:10685C009CE2032000000000D9670D00704710B5C2
:10686C001821044600F0C6FF204610BDF0B5037D8C
:10687C00062B8DB00E4600F104074FF0000402D039
:10688C0000F1080518E00CAD394605F8304D2F2302
:10689C002A460A20FEF738FE284602F003FE33682B
:1068AC000246DB682946304698470FE024B12E217A
:1068BC003046FFF7D3FC044415F8011D0A2230467C
:1068CC00FFF7E5FCBD420444F0D120460DB0F0BD0D
:1068DC0010B5054B0446112240F8043B002102F090
:1068EC008BF8204610BD00BF08A20D000346074AD6
:1068FC0010B543F8042B01F1100251F8044B43F886
:10690C00044B9142F9D10A781A7010BD08A20D00FF
:10691C00037D042B01D1406808E0062B0AD14368A3
:10692C0053B9836843B9C36833B90069003018BFE1
:10693C0001207047002070470120704710B59DF86A
:10694C00084044EA032343EA024242EA0161042379
:10695C004160037510BD37B50D788B784A78C978CE
:10696C0000912946FFF7EAFF03B030BD4174704730
:10697C00704708B50021007CFEF7CEFE30EA2000FF
:10698C0028BF4FF0FF3008BD08B50121007CFEF791
:10699C00C3FE30EA200028BF4FF0FF3008BD08B519
:1069AC00007CFEF7B1FE20EAE07008BD08B5007C63
:1069BC00FEF7A2FE20EAE07008BD007CFEF7BCBE2C
:1069CC0010B51421044600F015FF204610BD38B553
:1069DC000446007C0D46FEF797FE002801DC607C27
:1069EC0028B12946207CFEF79FFE20EAE07038BDD6
:1069FC0010B50446002363604FF47A73A360054B13
:106A0C00236001230846217463741146FEF76CFE63
:106A1C00204610BD1CA20D0010B514220446002106
:106A2C0001F0EAFF204610BD30B50E4D87B001A82D
:106A3C00FFF7F2FF296811F0010410D12846FDF789
:106A4C002AFB60B101AA21460748FFF7D1FF28466F
:106A5C00FDF726FB054A0649034800F0BDFE024837
:106A6C0007B030BDA0E20320A4E2032058DD0320D0
:106A7C007D690D00002211464068FEF7E3BE00223E
:106A8C0011464068FEF7EEBE00224068FEF7E2BEFB
:106A9C00002281F001014068FEF7CCBE00231A46AB
:106AAC0019464068FEF7BEBE00231A4619464068D8
:106ABC00FEF7B0BE002211464068FEF793BE0022DE
:106ACC0002214068FEF796BE00231A464068FEF786
:106ADC0081BE0000F0B51B4B036000250F46283328
:106AEC00182689B043608560C56032462946044645
:106AFC00103001F081FF2A4629467868FEF782FEA5
:106B0C0008B9A0601BE02946324602A80095019501
:106B1C0001F072FF02A96846ADF80860FEF7DCFDD3
:106B2C0010B10123A3600AE0009B019AA360E2600C
:106B3C000BB90223A36002A92046FFF753FD2046A0
:106B4C0009B0F0BDD4A10D0038B5084C28252A4653
:106B5C000021204601F050FF4FF0FF336360044BDF
:106B6C00258004225A60034A1A6038BDC0E2032013
:106B7C00B8E203204CA20D0070474174704708B571
:106B8C00007CFEF711FD20EAE07008BD08B5007C22
:106B9C00FEF7E2FC20EAE07008BD08B5007CFEF7C9
:106BAC00EBFC30EA200028BF4FF0FF3008BD08B5E1
:106BBC00007CFEF7D9FC30EA200028BF4FF0FF30F4
:106BCC0008BD007CFEF7E0BC10B51421044600F0B3
:106BDC0011FE204610BD70B5457C04460E4625B905
:106BEC00007CFEF7E1FC002805DD3146207CBDE889
:106BFC007040FEF7A9BC284670BD000010B50446D5
:106C0C0008461146002262604FF47A72A260054A6F
:106C1C0022600122207462741A46FEF78DFC204615
:106C2C0010BD00BF80A20D00007CFEF7B5BC0000BB
:106C3C0038B50C4D296811F0010411D12846FDF727
:106C4C002AFA68B1084A094B09482146FFF7D6FFD2
:106C5C002846FDF725FA074A0749054800F0BCFD10
:106C6C00034838BD80E3032084E30320FCE20320C7
:106C7C00E8E2032058DD0320856B0D007047F8B562
:106C8C00064615460C468F18BC4206D0336814F8DD
:106C9C00011B9B6830469847F6E72846F8BD002252
:106CAC00007CFEF799BC0021007CFEF79DBC002106
:106CBC00007CFEF7A1BC0021007CFEF7A5BC0021E6
:106CCC00007CFEF7A9BC10B51421044600F092FD1F
:106CDC00204610BD10B50446002363604FF47A7350
:106CEC00A360044B2174084623601146FEF7A4FCF4
:106CFC00204610BDB0A20D0070B50C4686B0142510
:106D0C0006462A46002101A801F076FE23788DF86C
:106D1C00083063680393E36804930022237A307C81
:106D2C00ADF8045001A90593FEF79EFC06B070BDAA
:106D3C001FB500338DF800104FF06401039118BF9C
:106D4C000123694601928DF80830FFF7D5FF05B095
:106D5C005DF804FB0022007CFEF72EBCC9B2FFF7E5
:106D6C00F9BF0022007CFEF72FBC0021007CFEF74F
:106D7C005BBC08B50021007CFEF766FCB0FA80F025
:106D8C00400908BD08B50021007CFEF765FCB0FA8F
:106D9C0080F0400908BD002211464068FEF752BD44
:106DAC00002211464068FEF75DBD00224068FEF7E8
:106DBC0051BD002281F001014068FEF73BBD00236C
:106DCC001A4601214068FEF72DBD00231A461946CC
:106DDC004068FEF71FBD002211464068FEF712BD49
:106DEC00002211464068FEF7FDBC002202214068DB
:106DFC00FEF700BD00231A464068FEF7EBBC38B521
:106E0C00054688B104684CB1A3681BB10322214626
:106E1C00204698471021204600F0ECFC284614210F
:106E2C00BDE8384000F0E6BC38BD10B103685B68C3
:106E3C001847704710B503680446BBB15868FEF795
:106E4C003BFB78B923685A7C12B95868FEF73CFBB7
:106E5C0023685868FEF740FB20680023236028B1A4
:106E6C00FFF7CDFF206808B1FFF7C9FF204610BD22
:106E7C0038B50446D0F8C40108B1FDF70AF9D4F8C6
:106E8C00C00108B1FEF738FBD4F8BC5135B1284627
:106E9C00FFF7D0FF0421284600F0ACFC206808B1B5
:106EAC00FFF7C3FF204638BD10B5044B044640F82D
:106EBC00083BFFF7DDFF204610BD00BFD8A20D0038
:106ECC0038B50E4C0E4B23600025022304F5E470FC
:106EDC006360A560C4F8C451C4F8C851FEF704FB44
:106EEC00084BC4F8CC5184F8D05123602046064A94
:106EFC000649BDE8384000F06FBC00BF08E4032031
:106F0C008CA30D00D8A20D0058DD0320B56E0D002A
:106F1C0037B502AC036804F8011DDD6B01224FF09C
:106F2C00FF332146A84703B030BD10B40368DC6BB7
:106F3C004FF0FF33A4465DF8044B604737B502AC05
:106F4C00036804F8011DDD6B214613460122A84796
:106F5C0003B030BD704738B543691A68002A04463F
:106F6C0005DAB3F88620B3F884309A4201D00125B3
:106F7C000BE003681B699847002814BF0125002506
:106F8C0003D123682046DB6A9847284638BD4369FD
:106F9C001868C043C00F704770470020704710B589
:106FAC001421044600F026FC204610BDFDF76FB8F6
:106FBC007FB5164600224260029203925A1C044688
:106FCC000D4608D04FF47A72B3FBF2F1029102FB3A
:106FDC0011314A43039260690823009341F2050280
:106FEC006B4440F6FF710068FEF746FB002808DB97
:106FFC0060690023324629460068FEF75DFB0028D5
:10700C0004DAFEF7B7FC03686360002004B070BDBF
:10701C0010B5036804469B689847A368013BA360BE
:10702C002BB923682046DB68BDE81040184710BD1B
:10703C0070B504464D69054B44F8043B8C35064647
:10704C000FCD0FC42B682370304670BD08A20D0005
:10705C0010B54369B3F88620B3F884309A420446DD
:10706C0005D06269B2F884301344187910BD0368F6
:10707C001B6998470028F4D14FF0FF3010BD10B5B4
:10708C004369B3F88620B3F884309A42044608D09A
:10709C006269B2F88430591C1344A2F88410187930
:1070AC0010BD03681B6998470028F1D14FF0FF30E1
:1070BC0010BDF8B543691746B3F88620B3F8843091
:1070CC009A4205460E4606D103681B69984710B9CB
:1070DC004FF0FF3414E06969B1F88430B1F88640A0
:1070EC00E41ABC4228BF3C461944224604313046BF
:1070FC0001F05CFC6A69B2F884302344A2F8843055
:10710C002046F8BD2DE9F0439846036893B0DB6A3E
:10711C000D4606461746984712AB002443F8484DD7
:10712C00224621462846FEF74FF9814600283DD1DC
:10713C00009B002B56D05B69002B53D006A8FFF7A1
:10714C00C7FB009B5C696378022B01D1211D13E006
:10715C000A2B14D11122494601A801F04DFCA36859
:10716C0033BBE36823BB4FF6FF702569FEF7D4F9F8
:10717C0085421DD104F1140106A8FFF7ECFB06A80B
:10718C00FFF7C6FB00282DD0336807ADD3F820904D
:10719C00184B0C930FCD0DAC0FC42B6823703A46D3
:1071AC0043460CA93046C84781461BE0A14619E06E
:1071BC0004F1080301AD1834186859682A4603C253
:1071CC000833A3421546F7D1062301A90CA80DAD2F
:1071DC008DF81430FFF78AFB0FCD07AC0FC42B686A
:1071EC002370CCE70098FEF7E7F8484613B0BDE8EB
:1071FC00F08300BF08A20D0042690023A2F884307E
:10720C004269A2F8863070472DE9F0411E460368AA
:10721C000C468AB0DB6A054617469847237DD5F89D
:10722C001480042B0CBF02200A2006220121FEF739
:10723C004BFAC8F800006B691B68002B18DB28465A
:10724C00FFF7DAFFD6B1002303A9F0B20393ADF830
:10725C001030FEF7F1F858B968690623009341F233
:10726C000B0203AB40F6FF710068FEF705FA28B17C
:10727C002B682846DB6A002498473BE01C263246E4
:10728C00002103A801F0B8FB237D8DF80C60042BC2
:10729C000CD1022338468DF80D30FEF745F9ADF8C8
:1072AC000E006068FEF738F9049013E00A233846A4
:1072BC008DF80D30FEF738F905AEADF80E00231D34
:1072CC0004F1140718685968324603C20833BB42EC
:1072DC001646F7D16B691C2203A91868FEF7DCF976
:1072EC000028C5D104340FCC6D698C350FC52368CB
:1072FC002B70012420460AB0BDE8F08110B543691B
:10730C0004461868002801DBFEF7BEF963694FF0EC
:10731C00FF321A606069112200218C3001F06CFB85
:10732C002046BDE81040FFF767BF000030B542694A
:10733C00B2F886308BB004461BB1B2F884209A4266
:10734C0040D06369186800283FDBB3F886507F2D66
:10735C003BD8191DC5F1800208232944FEF7A4F976
:10736C0000280CDD6369B3F886200AB9A3F88420E1
:10737C006269B2F886301844A2F8860025E0FEF760
:10738C00F9FA03680B2B20D0FEF7F4FA03680B2BE9
:10739C001BD02023002502930395FEF7EBFA03681C
:1073AC0001930E4B009302AA2B460D493220FEF797
:1073BC00CBF963691868FEF767F963694FF0FF3220
:1073CC001A6002E0FFF718FFBBE76269B2F886307B
:1073DC00B2F88400181A0BB030BD00BF73A30D00B7
:1073EC006CA30D0010B5002304460160A0F8843096
:1073FC00A0F886308830FFF76BFA204610BD0000ED
:10740C004FF47A7270B500238260144A43600260B4
:10741C00436183610446A0200E46FCF736FE054608
:10742C0010B13146FFF7DEFF1420FCF72EFE0346A9
:10743C0028B1012242608260094A02600561A0699C
:10744C006561A36128B14368013B43600BB9FFF749
:10745C00DFFD2046FFF7D0FE204670BD28A30D00AF
:10746C000CA30D0010B54FF0FF310446FFF7C8FF19
:10747C00204610BD10B504460068002801DBFEF75D
:10748C0003F9204610BD10B504692046FFF7F2FF42
:10749C0024B12046BDE81040FCF7F9BD10BD002317
:1074AC001A464068FEF796B9002202214068FEF7A2
:1074BC00A1B9002211464068FEF794B9002211468A
:1074CC004068FEF79FB900231A4619464068FEF73C
:1074DC00A1B900231A4619464068FEF7A3B9002249
:1074EC0081F001014068FEF7A5B900224068FEF763
:1074FC00B1B9002211464068FEF7B4B9002211461A
:10750C004068FEF79FB92DE9F043002495B016466C
:10751C000D460746FFF7DCF9214620220CA8009403
:10752C0001F06AFA40230C9321466B460CAA3046B4
:10753C00FDF74AFF0446002844D102460121686841
:10754C00FEF760F90221804622466868FEF75AF978
:10755C00009E81462146002E34D0002932D173681A
:10756C00022B02D00A2B09D02AE0B8F1000F27D049
:10757C00716938460431FFF7EEF920E0B9F1000FDC
:10758C001ED07469112201A801F036FA06238DF879
:10759C00143001AD04F108031834186859682A46F0
:1075AC0003C20833A3421546F7D101A906A807ADBB
:1075BC00FFF79CF90FCD3C1D0FC42B6823700121E4
:1075CC00F669C8E70098FDF7F7FE384615B0BDE838
:1075DC00F0830000024B034A1A6000225A60704785
:1075EC00DCE503208CA30D0008B5024B1B681B685F
:1075FC00019308BD5C02030008B5024B1B685B6875
:10760C00019308BD5C02030008B5024B1B689B6824
:10761C00019308BD5C02030070B5184E316811F07F
:10762C00010504460AD13046FCF735FD30B1294638
:10763C001348FEF7E5F93046FCF732FD1048FEF72B
:10764C00E9F928B1A4F10B03022B01D8002070BD7D
:10765C0000F076F8FFF789FB08B1012CF6D9FFF79B
:10766C00E7FAFFF7E1FA18B1A4F10903012BEDD900
:10767C00232C8CBF0020012070BD00BFE4E503204B
:10768C00E8E50320232838B504460D460AD8FF291F
:10769C0008D0FFF7C1FF28B129462046BDE8384085
:1076AC00FDF7A2BE38BD38B504460D46FDF7A4FE65
:1076BC00FF2810D0062804D84D2323FA00F0C30766
:1076CC0009D42046FFF7A8FF28B129462046BDE87B
:1076DC003840FDF799BE38BD70B5044614252A46CE
:1076EC00094E002101F088F9258020253146A5603E
:1076FC002561284600F080F831466060284600F08D
:10770C007BF8E060204670BDB8A30D0070B5044650
:10771C0014252A46094E002101F06EF925802025FA
:10772C003146A5602561284600F066F83146606058
:10773C00284600F061F8E060204670BDB8A30D004B
:10774C0030B50E4D296811F0010487B013D12846CD
:10775C00FCF7A1FC78B101A8FFF7BEFF01AA2146F6
:10776C000748FFF7B7FA2846FCF79AFC054A064982
:10777C00034800F031F8024807B030BDF4E50320AF
:10778C000CE6032058DD0320896C0D0010B50E4C5F
:10779C002368DB0786B013D42046FCF77CFC78B159
:1077AC0001A8FFF7B3FF01AA01210848FFF792FADD
:1077BC002046FCF775FC064A0649044800F00CF814
:1077CC00024806B010BD00BF20E60320F8E50320F8
:1077DC0058DD0320896C0D000B460146184600F05D
:1077EC00CBBF0000024B1868BFF35F8F704700BF20
:1077FC0024E60320FCF74BBC00F000B810B50028C1
:10780C0014BF044601242046FEF774F820B9FFF794
:10781C00E9FF08B18047F6E710BD0000184B1A6865
:10782C00D1075CBF01221A60164B1A68D2075CBFE5
:10783C0001221A60144B1A68D0075CBF01221A602F
:10784C00124B1A68D1075CBF01221A60104B1A68E0
:10785C00D2075CBF01221A600E4B1A68D0075CBFBE
:10786C0001221A600C4B1A68D1075CBF01221A6006
:10787C000A4B1A68D2075CBF01221A60704700BF1E
:10788C0044E6032040E603203CE6032038E60320D0
:10789C0034E6032030E603202CE6032028E6032000
:1078AC00244B1A68D0075CBF01221A60224B1A685D
:1078BC00D1075CBF01221A60204B1A68D2075CBF4B
:1078CC0001221A601E4B1A68D0075CBF01221A6095
:1078DC001C4B1A68D1075CBF01221A601A4B1A683C
:1078EC00D2075CBF01221A60184B1A68D0075CBF24
:1078FC0001221A60164B1A68D1075CBF01221A606C
:10790C00144B1A68D2075CBF01221A60124B1A681A
:10791C00D0075CBF01221A60104B1A68D1075CBFFC
:10792C0001221A600E4B1A68D2075CBF01221A6042
:10793C00704700BF74E6032070E603206CE603205A
:10794C0068E6032064E6032060E603205CE603207F
:10795C0058E6032054E6032050E603204CE60320AF
:10796C0048E60320244B1A68D0075CBF01221A603A
:10797C00224B1A68D1075CBF01221A60204B1A688F
:10798C00D2075CBF01221A601E4B1A68D0075CBF7D
:10799C0001221A601C4B1A68D1075CBF01221A60C5
:1079AC001A4B1A68D2075CBF01221A60184B1A686E
:1079BC00D0075CBF01221A60164B1A68D1075CBF56
:1079CC0001221A60144B1A68D2075CBF01221A609C
:1079DC00124B1A68D0075CBF01221A60104B1A6850
:1079EC00D1075CBF01221A600E4B1A68D2075CBF2C
:1079FC0001221A60704700BFA4E60320A0E6032012
:107A0C009CE6032098E6032094E6032090E60320EE
:107A1C008CE6032088E6032084E6032080E603201E
:107A2C007CE6032078E60320184B1A68D1075CBF6C
:107A3C0001221A60164B1A68D2075CBF01221A6029
:107A4C00144B1A68D0075CBF01221A60124B1A68DB
:107A5C00D1075CBF01221A60104B1A68D2075CBFB9
:107A6C0001221A600E4B1A68D0075CBF01221A6003
:107A7C000C4B1A68D1075CBF01221A600A4B1A68BA
:107A8C00D2075CBF01221A60704700BFC4E6032016
:107A9C00C0E60320BCE60320B8E60320B4E60320CE
:107AAC00B0E60320ACE60320A8E6032081F00041F9
:107ABC0002E000BF83F0004330B54FEA41044FEAC7
:107ACC00430594EA050F08BF90EA020F1FBF54EA62
:107ADC00000C55EA020C7FEA645C7FEA655C00F0FE
:107AEC00E2804FEA5454D4EB5555B8BF6D420CDDCF
:107AFC002C4480EA020281EA030382EA000083EA52
:107B0C00010180EA020281EA0303362D88BF30BDF1
:107B1C0011F0004F4FEA01314FF4801C4CEA113147
:107B2C0002D0404261EB410113F0004F4FEA0333A6
:107B3C004CEA133302D0524263EB430394EA050F31
:107B4C0000F0A780A4F10104D5F1200E0DDB02FAA0
:107B5C000EFC22FA05F2801841F1000103FA0EF234
:107B6C00801843FA05F359410EE0A5F120050EF1FA
:107B7C00200E012A03FA0EFC28BF4CF0020C43FA2B
:107B8C0005F3C01851EBE37101F0004507D54FF038
:107B9C00000EDCF1000C7EEB00006EEB0101B1F588
:107BAC00801F1BD3B1F5001F0CD349085FEA3000CE
:107BBC004FEA3C0C04F101044FEA445212F5800FD9
:107BCC0080F09A80BCF1004F08BF5FEA500C50F176
:107BDC00000041EB045141EA050130BD5FEA4C0C59
:107BEC00404141EB010111F4801FA4F10104E9D1E2
:107BFC0091F0000F04BF01460020B1FA81F308BFD9
:107C0C002033A3F10B03B3F120020CDA0C3208DDA4
:107C1C0002F1140CC2F10C0201FA0CF021FA02F17F
:107C2C000CE002F11402D8BFC2F1200C01FA02F1EF
:107C3C0020FA0CFCDCBF41EA0C019040E41AA2BF14
:107C4C0001EB0451294330BD6FEA04041F3C1CDADC
:107C5C000C340EDC04F11404C4F1200220FA04F0FC
:107C6C0001FA02F340EA030021FA04F345EA0301A6
:107C7C0030BDC4F10C04C4F1200220FA02F001FA68
:107C8C0004F340EA0300294630BD21FA04F02946EA
:107C9C0030BD94F0000F83F4801306BF81F4801183
:107CAC000134013D4EE77FEA645C18BF7FEA655CF6
:107CBC0029D094EA050F08BF90EA020F05D054EAC8
:107CCC00000C04BF1946104630BD91EA030F1EBFCD
:107CDC000021002030BD5FEA545C05D140004941D1
:107CEC0028BF41F0004130BD14F580043CBF01F5C4
:107CFC00801130BD01F0004545F0FE4141F47001AA
:107D0C004FF0000030BD7FEA645C1ABF1946104684
:107D1C007FEA655C1CBF0B46024650EA013406BF85
:107D2C0052EA033591EA030F41F4002130BD00BF44
:107D3C0090F0000F04BF0021704730B54FF4806401
:107D4C0004F132044FF000054FF0000150E700BF82
:107D5C0090F0000F04BF0021704730B54FF48064E1
:107D6C0004F1320410F0004548BF40424FF00001CE
:107D7C003EE700BF42004FEAE2014FEA31014FEA11
:107D8C0002701FBF12F07F4393F07F4F81F0605160
:107D9C00704792F0000F14BF93F07F4F704730B5CF
:107DAC004FF4607401F0004521F0004120E700BF62
:107DBC0050EA010208BF704730B54FF000050AE0E9
:107DCC0050EA010208BF704730B511F0004502D5EA
:107DDC00404261EB41014FF4806404F132045FEAEC
:107DEC00915C3FF4DCAE4FF003025FEADC0C18BF91
:107DFC0003325FEADC0C18BF033202EBDC02C2F187
:107E0C00200300FA03FC20FA02F001FA03FE40EA18
:107E1C000E0021FA02F11444C1E600BF70B54FF018
:107E2C00FF0C4CF4E06C1CEA11541DBF1CEA1355FA
:107E3C0094EA0C0F95EA0C0F00F0DEF82C4481EA62
:107E4C00030621EA4C5123EA4C5350EA013518BF82
:107E5C0052EA033541F4801143F4801338D0A0FB6F
:107E6C0002CE4FF00005E1FB02E506F00042E0FB1C
:107E7C0003E54FF00006E1FB03569CF0000F18BF22
:107E8C004EF0010EA4F1FF04B6F5007F64F54074CA
:107E9C0004D25FEA4E0E6D4146EB060642EAC6215D
:107EAC0041EA55514FEAC52040EA5E504FEACE2ECA
:107EBC00B4F1FD0C88BFBCF5E06F1ED8BEF1004FCD
:107ECC0008BF5FEA500E50F1000041EB045170BD49
:107EDC0006F0004646EA010140EA020081EA03018D
:107EEC00B4EB5C04C2BFD4EB0C0541EA045170BD89
:107EFC0041F480114FF0000E013C00F3AB8014F103
:107F0C00360FDEBF002001F0004170BDC4F100044B
:107F1C00203C35DA0C341BDC04F11404C4F12005CC
:107F2C0000FA05F320FA04F001FA05F240EA020027
:107F3C0001F0004221F0004110EBD37021FA04F65D
:107F4C0042EB06015EEA430E08BF20EAD37070BD17
:107F5C00C4F10C04C4F1200500FA04F320FA05F076
:107F6C0001FA04F240EA020001F0004110EBD37078
:107F7C0041F100015EEA430E08BF20EAD37070BDE8
:107F8C00C4F1200500FA05F24EEA020E20FA04F3C1
:107F9C0001FA05F243EA020321FA04F001F0004170
:107FAC0021FA04F220EA020000EBD3705EEA430EE1
:107FBC0008BF20EAD37070BD94F0000F0FD101F010
:107FCC000046400041EB010111F4801F08BF013C49
:107FDC00F7D041EA060195F0000F18BF704703F087
:107FEC000046520043EB030313F4801F08BF013D0E
:107FFC00F7D043EA0603704794EA0C0F0CEA1355CA
:10800C0018BF95EA0C0F0CD050EA410618BF52EA83
:10801C004306D1D181EA030101F000414FF0000089
:10802C0070BD50EA410606BF1046194652EA430697
:10803C0019D094EA0C0F02D150EA013613D195EA0B
:10804C000C0F05D152EA03361CBF104619460AD153
:10805C0081EA030101F0004141F0FE4141F470015D
:10806C004FF0000070BD41F0FE4141F4780170BD4D
:10807C0070B54FF0FF0C4CF4E06C1CEA11541DBFB2
:10808C001CEA135594EA0C0F95EA0C0F00F0A7F8B4
:10809C00A4EB050481EA030E52EA03354FEA0131E1
:1080AC0000F088804FEA03334FF0805545EA1313F4
:1080BC0043EA12634FEA022245EA111545EA1065BC
:1080CC004FEA00260EF000419D4208BF964244F153
:1080DC00FD0404F5407402D25B084FEA3202B61A72
:1080EC0065EB03055B084FEA32024FF480104FF446
:1080FC00002CB6EB020E75EB030E22BFB61A7546BA
:10810C0040EA0C005B084FEA3202B6EB020E75EB4C
:10811C00030E22BFB61A754640EA5C005B084FEAB4
:10812C003202B6EB020E75EB030E22BFB61A754681
:10813C0040EA9C005B084FEA3202B6EB020E75EB8C
:10814C00030E22BFB61A754640EADC0055EA060E4D
:10815C0018D04FEA051545EA16754FEA06164FEA90
:10816C00C30343EA52734FEAC2025FEA1C1CC0D13C
:10817C0011F4801F0BD141EA00014FF000004FF0C9
:10818C00004CB6E711F4801F04BF01430020B4F18A
:10819C00FD0C88BFBCF5E06F3FF6AFAEB5EB030C42
:1081AC0004BFB6EB020C5FEA500C50F1000041EB3F
:1081BC00045170BD0EF0004E4EEA113114EB5C040C
:1081CC00C2BFD4EB0C0541EA045170BD41F48011DF
:1081DC004FF0000E013C90E645EA060E8DE60CEAE7
:1081EC00135594EA0C0F08BF95EA0C0F3FF43BAF04
:1081FC0094EA0C0F0AD150EA01347FF434AF95EABB
:10820C000C0F7FF425AF104619462CE795EA0C0F9E
:10821C0006D152EA03353FF4FDAE1046194622E76B
:10822C0050EA410618BF52EA43067FF4C5AE50EA45
:10823C0041047FF40DAF52EA43057FF4EBAE12E735
:10824C004FF0FF3C06E000BF4FF0010C02E000BF16
:10825C004FF0010C4DF804CD4FEA410C7FEA6C5CF9
:10826C004FEA430C18BF7FEA6C5C1BD001B050EA9C
:10827C00410C0CBF52EA430C91EA030F02BF90EA87
:10828C00020F0020704710F1000F91EA030F58BF46
:10829C00994208BF90422CBFD8176FEAE37040F0A8
:1082AC00010070474FEA410C7FEA6C5C02D150EA46
:1082BC00013C07D14FEA430C7FEA6C5CD6D152EA01
:1082CC00033CD3D05DF8040B704700BF84461046C6
:1082DC0062468C461946634600E000BF01B5FFF7C5
:1082EC00B7FF002848BF10F1000F01BD4DF808ED95
:1082FC00FFF7F4FF0CBF012000205DF808FB00BF66
:10830C004DF808EDFFF7EAFF34BF012000205DF8BF
:10831C0008FB00BF4DF808EDFFF7E0FF94BF01200C
:10832C0000205DF808FB00BF4DF808EDFFF7CEFF0D
:10833C0094BF012000205DF808FB00BF4DF808ED4C
:10834C00FFF7C4FF34BF012000205DF808FB00BF1D
:10835C004A0011D212F5001211D20DD56FF47873B8
:10836C00B3EB62520ED44FEAC12343F0004343EA0D
:10837C00505323FA02F070474FF00000704750EA58
:10838C00013002D14FF0FF3070474FF000007047C2
:10839C0053B94AB9002908BF00281CBF4FF0FF3160
:1083AC004FF0FF3000F0A2B9ADF1080C6DE904CE2E
:1083BC0000F02AF8DDF804E0DDE9022304B0704790
:1083CC00D0B500220E4B06460F46FFF727FDFFF7F0
:1083DC00BFFF0446FFF7ACFC00220A4BFFF71EFD63
:1083EC0002460B4630463946FFF764FBFFF7B0FFF9
:1083FC002346002242EA000210461946D0BD00BFB7
:10840C000000F03D0000F0412DE9F0478C460E468F
:10841C000446089D002B50D18A4217466CD9B2FAFB
:10842C0082FEBEF1000F0BD0CEF1200420FA04F432
:10843C0001FA0EF644EA060C02FA0EF700FA0EF4F4
:10844C004FEA1749220CBCFBF9F01FFA87F809FB1D
:10845C0010C642EA064600FB08F3B34209D9F619E6
:10846C0000F1FF3280F02281B34240F21F810238CA
:10847C003E44F61AA2B2B6FBF9F309FB136642EAC4
:10848C00064403FB08F8A04509D9E41903F1FF32AF
:10849C0080F00A81A04540F20781023B3C44C8EBC6
:1084AC00040443EA00400021002D62D024FA0EF4AB
:1084BC0000232C606B60BDE8F0878B4207D9002D40
:1084CC0055D0002185E841000846BDE8F087B3FA95
:1084DC0083F1002940F09080B34202D3824200F233
:1084EC00F880841A66EB03060120B446002D40D0B8
:1084FC0085E81010BDE8F08712B90127B7FBF2F739
:10850C00B7FA87FEBEF1000F35D1F31B4FEA1748BF
:10851C001FFA87FC0121B3FBF8F0220C08FB103684
:10852C0042EA06460CFB00F3B34207D9F61900F1F8
:10853C00FF3202D2B34200F2CE801046F61AA2B23B
:10854C00B6FBF8F308FB136642EA06440CFB03FC8B
:10855C00A44507D9E41903F1FF3202D2A44500F275
:10856C00B5801346CCEB040443EA00409CE7294653
:10857C002846BDE8F087CEF1200106FA0EF307FA83
:10858C000EF720FA01F94FEA1748CE4049EA0309E1
:10859C00B6FBF8FA4FEA194408FB1A661FFA87FC77
:1085AC0044EA06430AFB0CF29A4200FA0EF40AD98A
:1085BC00DB190AF1FF3180F087809A4240F2848007
:1085CC00AAF1020A3B449B1A1FFA89F9B3FBF8F192
:1085DC0008FB113349EA034301FB0CF69E4207D911
:1085EC00DB1901F1FF326BD29E4269D902393B444F
:1085FC009B1B41EA0A418EE7C1F1200E22FA0EF4D0
:10860C008B40234320FA0EF706FA01F44FEA134C81
:10861C0026FA0EF63C43B6FBFCF9270C0CFB19664C
:10862C001FFA83F847EA064609FB08F7B74202FA35
:10863C0001F200FA01FA08D9F61809F1FF3041D21B
:10864C00B7423FD9A9F102091E44F61BA0B2B6FBF2
:10865C00FCF40CFB146640EA064704FB08F8B8452A
:10866C0007D9FF1804F1FF3028D2B84526D9023CAF
:10867C001F4444EA0940C8EB0707A0FB02894F4599
:10868C0044464E4614D329D065B3BAEB040367EBCA
:10869C00060707FA0EFECB40CF404EEA030385E8EF
:1086AC0088000021BDE8F0871346F8E61046E0E6A6
:1086BC00B8EB020469EB03060138E5E70446D8E79A
:1086CC00114695E78146C0E78A467CE7023B3C446D
:1086DC0048E708460AE702383E442FE7C245E7D38D
:1086EC003E46D1E72946BDE8F08700BF704700BF82
:1086FC00094B70B51C68256C06463DB91A20FDF770
:10870C00F9F81A222064294600F076F9216C3046DB
:10871C00BDE8704000F002B808DD032010B50C462F
:10872C0041690369826986B001F26C710491016838
:10873C0003914168029181680191C16800910749D8
:10874C0003EB43030B44064902EB42020A44204666
:10875C000449FDF7E7F8204606B010BDCEA30D0086
:10876C00B9A30D00F2A30D000A22002100F06ABF8C
:10877C000A22002100F066BF10B5054C13462CB13F
:10878C000A4601460220AFF3008010BD204610BD02
:10879C000000000038B5074B1C68E36B05461BB99D
:1087AC002420FDF7A7F8E063E16B2846BDE83840CC
:1087BC0000F002B808DD03202DE9F0410C4680469C
:1087CC0001F05AFA21460746404601F059FA46692B
:1087DC0006F26C76B307044605D1642296FBF2F3DD
:1087EC0002FB13634BB94FF4C87596FBF5F305FB0D
:1087FC001365B5FA85F35B0900E001235F4A302568
:10880C0005FB032501F068F801F068F85C4B1B6868
:10881C00F3B17B689E4205D13968D8F80030FA690B
:10882C0041B90AE0304600F0AFFF0028F4D14FF018
:10883C00FF330DE0934208DB01E0934207DABA6B99
:10884C009342ACBF0023012302E0002300E001238C
:10885C002362236A012B0CBFF96B396A4FF46163F5
:10886C003C2091FBF3F603FB1613616893FBF0F2CB
:10887C0000FB12302368891AA26861601B1A921BD4
:10888C003B2B2360A26003DD013161603C3B04E0C3
:10889C00002B03DA013961603C33236063683B2BA6
:1088AC0003DD0132A2603C3B04E0002B03DA013A09
:1088BC00A2603C336360A368172B22DDE2690132AE
:1088CC00E261A2690132062AC8BF0022A261E268F5
:1088DC00183B0132A3602369E26055F823108A42E9
:1088EC0046DD01330C2B0CBF63692361A2EB010243
:1088FC00E26001BF013300222261636108BFE261C3
:10890C0036E0002B34DAE269013AE261A269013AFD
:10891C0048BF0622A261E2681833013AE260A36004
:10892C0032BB2369013B01D423611DE00B2323617E
:10893C0063695A1E12F0030F626103F26B7305D167
:10894C00642193FBF1F201FB12324AB94FF4C87166
:10895C0093FBF1F201FB1233B3FA83F35B0900E0F2
:10896C00012303F5B673E361236955F82330E36003
:10897C0000F0B3FF2046BDE8F08100BF78A50D00E4
:10898C00E4E70320002910B591FBF2F402FB141369
:10899C0004DB002B07DA01349B1A04E0002BC4BF64
:1089AC0004F1FF349B180460436010BD10B5431EE6
:1089BC000A44914204D011F8014B03F8014FF8E737
:1089CC0010BD884210B501EB020301D8421E0BE02A
:1089DC009842FBD28118D21AD34204D013F8014D1D
:1089EC0001F8014DF8E710BD994204D011F8014B84
:1089FC0002F8014FF8E710BD02440346934202D03F
:108A0C0003F8011BFAE7704738B5124B1C68A36BCF
:108A1C000546D3B91820FCF76DFF43F20E33A06363
:108A2C0003804AF6CD33438041F2342383804EF2E7
:108A3C006D63C3804DF6EC630381052343810B23E7
:108A4C00838101220023C0E90423A36B00221D6152
:108A5C005A6138BD08DD032010F8012B11F8013BD9
:108A6C00012A28BF9A42F7D0D01A7047034611F852
:108A7C00012B03F8012B002AF9D1704741698B07B0
:108A8C0010B50CD1002940F26C73A8BF6FF06303D2
:108A9C000B44642493FBF4F204FB123383B90029D6
:108AAC0040F26C73A8BF6FF063034FF4C8720B44B1
:108ABC0093FBF2F102FB1133B3FA83F2520900E09B
:108ACC0001228369C1695B0003EB01131344212B61
:108ADC000EDC202B2FDA0D2B02DC0A2B05DB2AE017
:108AEC00102B26DB112B26DD1C3B012B23D920E080
:108AFC0041F2C66293420EDC41F2C262934216DA34
:108B0C0041F2A262934212D013DBA3F5B553123B90
:108B1C00022B0CD90DE041F2D562934207D041F201
:108B2C00D762934203D041F2D362934201D1012028
:108B3C0010BD002010BD4FF0FF3010BD2DE9F04FDF
:108B4C0093B00E461D460746914600F00DFE0023DD
:108B5C0006931C46731E0390029399F80030002B69
:108B6C0000F09284252B08D0029A944280F09084D5
:108B7C003B5509F101090134EFE799F801A0BAF16D
:108B8C00300F07D0BAF12B0F04D009F101094FF0C7
:108B9C00000A01E009F1020999F80030313B082B79
:108BAC0008D848460A220AA900F0D4FDDDF828901E
:108BBC00804601E04FF0000899F80030452B01D0B9
:108BCC004F2B01D109F1010999F80000A0F12503FF
:108BDC00552B00F25D84DFE813F04A045B045B0460
:108BEC005B045B045B045B045B045B045B045B0481
:108BFC005B045B045B045B045B045B045B045B0471
:108C0C005B045B045B045B045B045B045B045B0460
:108C1C005B046F00A100D4001A015B043F01A001AA
:108C2C0026022D025B045B045B0460025B045B04A4
:108C3C0068025B0497021D0325033B034303860371
:108C4C00C600A0031F045B045B045B045B045B04B1
:108C5C005B0456008900BA000C010C015B04710125
:108C6C0089005B043D0226022D025D0262025B0458
:108C7C0068025B04BE009C021F032E035B047F038F
:108C8C00C2009203E703AB69039A183352F82380AE
:108C9C00404600F007FC08F1FF383B1920448442A1
:108CAC0000F0EB83029A944280F0F28318F8012FC3
:108CBC0003F8012B0134F2E7AB69039A02EB83034F
:108CCC00D3F87C80404600F0EDFB08F1FF383B19EF
:108CDC002044844200F0D183029A944280F0D883DD
:108CEC0018F8012F03F8012B0134F2E72B69039AD2
:108CFC0052F82380404600F0D5FB08F1FF383B19B1
:108D0C002044844200F0B983029A944280F0C083DC
:108D1C0018F8012F03F8012B0134F2E72B69039AA1
:108D2C000C3352F82380404600F0BCFB08F1FF38AE
:108D3C003B192044844200F0A083029A944280F0B4
:108D4C00A78318F8012F03F8012B0134F2E7039BDA
:108D5C00D3F8A0800AE0039BD3F8E48006E0039BE1
:108D6C00D3F89C8002E0039BD3F89880404600F037
:108D7C0099FB98F80030002B00F07F832B4642467D
:108D8C0093E0B649D5F814B08B45ACBF0021012156
:108D9C00BBF1000F04DB64209BFBF0F0133008E008
:108DAC000BF26C70079100F01FFF0799642390FB86
:108DBC00F3F0BAF1000F08D0632809DDA84BA94ADB
:108DCC00BAF12B0F18BF134603E0A64BA64A01E0DD
:108DDC00A44BA64A0190B8F1010F98BF4FF00208BE
:108DEC00C1EB080100919D48A1498345B8BF0B46D2
:108DFC001EE2A04AA049EB68642808BF0A46311B52
:108E0C003819FCF7A7FD002880F2028340E368695B
:108E1C002B69002803F1010B07EB0408C4EB060ACD
:108E2C00EB6805DB642290FBF2F102FB11000AE017
:108E3C0000F26C70079300F0D7FE6422079B90FB46
:108E4C00F2F101FB12008D4A0190009351465B46F2
:108E5C004046FCF77FFDD6E725238DF82830BAF184
:108E6C00000F07D0B8F1050F8DF829A098BF4FF06F
:108E7C00060804E02B238DF829304FF00A08B8F1CE
:108E8C00060302D10DF12A000AE07D4A1E210DF1E4
:108E9C002A00FCF75FFD0028F4DD0DF12A031844CD
:108EAC007849FFF7E3FD2B460AAA311B3819FFF767
:108EBC0045FE002840F3EC820444DEE22846FFF72E
:108ECC00DDFD80466869002805DB642290FBF2F129
:108EDC0002FB110008E000F26C7000F085FE6422C9
:108EEC0090FBF2F303FB1200B8F1000F06DA6A698B
:108EFC00654B9A42B8BF4FF0010806E005D06A698D
:108F0C00564B9A42B8BF4FF0FF386423404490FB55
:108F1C00F3F203FB12001844F9E1504B6969089114
:108F2C009942ACBF0023012328460793FFF7A6FD07
:108F3C0008990029834604DB642391FBF3F3133374
:108F4C0008E001F26C70089100F04EFE0899642361
:108F5C0090FBF3F36869002806DB4FF0640E90FB7E
:108F6C00FEFC0EFB1C000DE000F26C7009910893E6
:108F7C0000F03AFE4FF0640E0999089B90FBFEFC42
:108F8C000CFB1E00BBF1000F08DA69693E4A9142E6
:108F9C000ADA4FF0010BCDF81CB005E004D02F4AD3
:108FAC009142B8BF4FF0FF3B0BEB0002501C02D1BB
:108FBC00013B632203E0642A04BF013300226420D6
:108FCC0000FB0323079A42B12D228DF82820B8F11B
:108FDC00000F13D008F1FF3810E0BAF12B0F10D1AD
:108FEC0042F20F7293420CD98DF828A0B8F1000F01
:108FFC00F0D112AA252102F81F1D0AE00DF1290259
:10900C0000E00AAA25211170BAF1000F01D1501C01
:10901C0002E03021901C51701C490793FFF726FD8C
:10902C00079B0093ADE1144A1249AB686B2808BF4B
:10903C000A46E4E6A9680C2331B199420EBF0B46EF
:10904C0091FBF3F203FB12130A4A0B49492808BFA0
:10905C000A46D4E6EB690E4A0133D0E694F8FFFFDA
:10906C00E7A50D00719F0D00D8A50D00DFA50D0023
:10907C00EB9F0D00E9A50D00F7A50D00EDA50D006A
:10908C00FCA50D0000A60D0095F8FFFF08A60D002D
:10909C000CA60D002B6901333DE16B683BE1029B93
:1090AC009C4280F0F5810A23E5E1AB68039A0B2B17
:1090BC00CCBFA423A0231344D3F80480404600F073
:1090CC00F1F9B24BD3F800E03919424620448442FE
:1090DC0000F0D381029B9C4280F0DA8199F8003039
:1090EC00502B04F1010413780AD10EEB030C9CF8FD
:1090FC0001C00CF0030CBCF1010F08BF2033DBB234
:10910C0001F8013B0132E2E76B680093A04AAB68BF
:10911C0039E12B6A002B17DB00F0DEFB069B1BB939
:10912C0000F0DCFB0123069300F0A6FD2B6A002B5C
:10913C00D4BF002301231C2202FB0300036AC3F1EA
:10914C00000800F0CAFB01E04FF00008D5F814E06D
:10915C007046BEF145024FEAE07141F1FF33002A3F
:10916C0073F1000BC4EB060C07EB040A03DABEF137
:10917C00420241F1FF33910841EA83719B10049143
:10918C0005930EF1FF31642391FBF3F1DDE9042328
:10919C00521A63EBE1730EF22B104FF4C87190FB73
:1091AC00F1F1521843EBE173AEF1460E40F26D1142
:1091BC0001FB0EFEE96912EB0E0243EBEE73521843
:1091CC004FF0180E43EBE173A2FB0E010EFB0311E3
:1091DC00AB684FF03C0EC01841EBE371A0FB0E23C3
:1091EC000EFB01336968521843EBE173A2FB0E01CD
:1091FC000EFB03112B68674AC01841EBE371B0EB0F
:10920C00080061EBE871CDE9000161465046FCF7BE
:10921C00A1FBF8E52B687EE0029B9C4280F0388134
:10922C00092328E12B6801936B6800935A4AAB68B9
:10923C00311B38190DE6029B9C4280F02981AB69E9
:10924C00621C0BB9372300E030333B55144614E154
:10925C00EB69AA6907339B1A072293FBF2F35AE0D6
:10926C002846FFF70BFCAA690AB1531E00E006233F
:10927C0000282FDCEA6901D10A323BE09A1A6B69AB
:10928C0040F26B71002BB4BF08466FF064001844B9
:10929C00810707D101464FF0640E90FBFEF00EFBE8
:1092AC00101181B9002B40F26B71A8BF6FF06401F3
:1092BC0019444FF4C87391FBF3F003FB1011B1FA8E
:1092CC0081F1490900E00121521A052AB4BF352366
:1092DC00342320E001231EE0029B9C4280F0D880C6
:1092EC00AB693033C7E0AA690AB1531E00E006230C
:1092FC00EA690732D21A072392FBF3F30BE0686991
:10930C00002803DA00F26C7000F06EFC642390FB12
:10931C00F3F202FB1303214A71E56B69204A934275
:10932C0003F26C7B05DA2D238DF82830CBF1000B82
:10933C0008E0BAF12B0F0DD142F20F739B4511D9F6
:10934C008DF828A0B8F1000F01D008F1FF380DF10D
:10935C00290300E00AAB25221A70BAF1000F08D1DC
:10936C00581C09E0B8F1000FF4D125238DF82830F2
:10937C000AAB3022981C5A700A49FFF777FBCDF8DC
:10938C0000B043460AAA311B38193EE0A4DC032086
:10939C001BA60D0011A60D0016A60D00F7A50D00BD
:1093AC0094F8FFFF08A60D002B6A002B65DB00F07C
:1093BC0093FA069B1BB900F091FA0123069300F077
:1093CC005BFC2B6A002BD4BF002301231C2202FB65
:1093DC00030007EB040A036AC3F1000800F07DFAEE
:1093EC003C2398FBF3F0079300F0E2FC079B90FB07
:1093FC00F3F2C4EB060B02FB1300284A009059460B
:10940C0050464FF4616398FBF3F3FCF7A3FAFAE4CC
:10941C000444A64231D83BE02B6A002B2DDB00F034
:10942C005BFA069B1BB900F059FA012306932B6AD1
:10943C001B4A002BD4BF0023012352F82380404643
:10944C0000F030F808F1FF383B19204484420BD06F
:10945C00029A944205D218F8012F03F8012B01341B
:10946C00F4E700F03AFA13E000F037FA05E0029B5B
:10947C009C420DD225233B55013499F800301BB189
:10948C0009F10109FFF769BB26B100233B5501E047
:10949C00002000E0204613B0BDE8F08F25A60D009B
:1094AC000CDD0320034613F8012B002AFBD1181AFC
:1094BC000138704730B582B1451E013915F8013FAE
:1094CC0011F8014FA34206D1EC431444E04201D001
:1094DC00002BF3D11C46181B30BD104630BD10B507
:1094EC00034642B111F8014B03F8014B013A002C31
:1094FC00F7D11A4400E010BD934202D003F8014B9F
:10950C00FAE710BDF0B5037863B90B78002B18BFE0
:10951C000020F0BD15F8012F62B114F8017F9742BD
:10952C003046F7D00346461C007810B14D1E5C1E29
:10953C00F0E7F0BD1846F0BD2DE9F04780464048F5
:10954C00D0F800900F463D4615F8014B09EB04008E
:10955C00407800F0080000F0FF0608B12F46F2E753
:10956C002D2C03D1BD1C7C78012603E02B2C04BFD1
:10957C007C78BD1C13B1102B0AD15BE0302C57D179
:10958C00287800F0DF0058284DD16C781023023574
:10959C00002E14BF4FF0004C6FF0004C0027BCFBAA
:1095AC00F3FA384603FB1ACC09EB040E9EF801E0E3
:1095BC001EF0040F01D0303C0BE01EF0030E1BD04C
:1095CC00BEF1010F0CBF4FF0370E4FF0570ECEEB24
:1095DC000404A34210DDB7F1FF3F0AD0504506D872
:1095EC0001D1644503DC03FB0040012701E04FF08F
:1095FC00FF3715F8014BD7E77B1C0CD1002E4FF031
:10960C00220314BF4FF000406FF00040C8F8003048
:10961C002AB9BDE8F08706B1404272B107B1691EA4
:10962C001160BDE8F0873024002BB1D10823AFE7DF
:10963C000A23ADE7302CA3D0AAE7BDE8F08700BF22
:10964C00A4DC032013460A46014602480068FFF7D3
:10965C0073BF00BF08DD03202DE9F04780463C486E
:10966C00D0F800900E46354615F8014B09EB040076
:10967C00407800F0080000F0FF0708B12E46F2E732
:10968C002D2C03D1B51C7478012703E02B2C04BFBF
:10969C007478B51C13B1102B0AD153E0302C4FD178
:1096AC00287800F0DF00582845D16C78102302355B
:1096BC004FF0FF3C0026BCFBF3FC03FB0CFA6FEAFB
:1096CC000A0A304609EB040E9EF801E01EF0040F66
:1096DC0001D0303C0BE01EF0030E1AD0BEF1010F8E
:1096EC000CBF4FF0370E4FF0570ECEEB0404A342D5
:1096FC000FDD002E08DB604506D801D1544503DC94
:10970C0003FB0040012601E04FF0FF3615F8014B3A
:10971C00D8E7002E07DA2223C8F800304FF0FF30CC
:10972C002AB9BDE8F08707B1404272B106B1691E93
:10973C001160BDE8F0873024002BB9D10823B7E7BE
:10974C000A23B5E7302CABD0B2E7BDE8F08700BFF9
:10975C00A4DC032013460A46014602480068FFF7C2
:10976C007BBF00BF08DD0320044B054A1868054B7E
:10977C00002814BF10461846704700BFC8E60320E7
:10978C00CCE6032064A70D002DE9F74F044600F04A
:10979C0073FA40F2B1739C4240F396806FF4F66317
:1097AC00E318A4F2B2729B1040F26D1505FB023562
:1097BC00A4F26D726FF0630392FBF3F36FF4C86263
:1097CC002B44A5184FF4C87295FBF2F51D44642385
:1097DC0094FBF2F794FBF3F602FB174703FB1646D8
:1097EC0000F13803B7FA87FE019304F003034460D9
:1097FC004FEA5E1E014600934FF0070C0B7A4A2B82
:10980C000ED14B69009AEC1802B906B927B93B2B5B
:10981C00D4BF0023012300E000232344013B3FE09D
:10982C00442B02D14B692B443AE0009B2BB9002E00
:10983C000CBFF0464FF0010800E0F046244BCC681A
:10984C00302202FB0838A8F1040AA9460123A342DE
:10985C0004DA5AF804BF0133D944F8E709F10403D8
:10986C0093FBFCFBCBEBCB0A012CCAEB030A4B6939
:10987C00B8BF012404F18044B3EB0A0A0B6904F16C
:10988C00FF3403F1FF3348BF0AF1070AC3EBC303EC
:10989C0058F824405344A34201DB073BFBE74B44FD
:1098AC008C690C4A02FB03430C6A234441F81C3FAD
:1098BC00019B9942A2D1C369826B9342ACBF002336
:1098CC0001230360012000E0002003B0BDE8F08F0D
:1098DC0078A50D008051010070477047014B186846
:1098EC0000F002B808DD03202DE9F04F8DB00746DB
:1098FC0000F0C2F9B049B14E0446384600F0B4F954
:10990C00054660B9AE4BAF4A1860AF4B1860AF4B11
:10991C0030681A605A60FBF7F5FF356048E1316832
:10992C0079B93068FBF7EEFF2846FFF7BBFD411C09
:10993C003846FCF717F8306048B12946FFF796F81F
:10994C0005E0FFF789F8002800F03281E9E72B7871
:10995C009F4AA0493A2B08BF01350AAE3346284628
:10996C00FBF7E8FF002840F323810A9BEF18EB5C20
:10997C002D2B03D101374FF0FF3503E02B2B08BF04
:10998C00013701250DF1200A0DF11E0B4FF00008D7
:10999C000396CDF808A00196CDF800B0334607AA7F
:1099AC008D49ADF81E803846ADF82080FBF7C2FF1C
:1099BC00404540F3FD80BDF81E20BDF82030DFF897
:1099CC0024923C2101FB0233BDF81C204FF4616151
:1099DC0001FB02335D4325627C4D7D4B2B600A9B62
:1099EC007C491F444A4633463846FBF7A3FF4045A3
:1099FC0008DC2B686B60724B226A1A60724BC3F8DE
:109A0C000080D5E00A9BC5F80490FD18FB5C2D2B5B
:109A1C0003D101354FF0FF3703E02B2B08BF013585
:109A2C0001270023ADF81C30ADF81E30ADF8203006
:109A3C000A930396CDF808A00196CDF800B03346F2
:109A4C0007AA65492846FBF775FF002804DC236A42
:109A5C00A3F56163E3630EE0BDF81E20BDF8203072
:109A6C003C2101FB0233BDF81C204FF4616101FB6A
:109A7C0002335F43E7630A9B27461D444FF00009FE
:109A8C002B782C2B08BF013595F80080B8F14D0FC1
:109A9C0026D10DF12603029309AB00930396019690
:109AAC0033460DF122024D492846FBF743FF0328AC
:109ABC007ED1BDF822104B1E0B2B79D8BDF824207B
:109ACC00531E042B74D8BDF82630062B70D887F89B
